{
  "address": "0x28A56395523AA1feEf1CAc427FbfA5E8b4767F91",
  "abi": [
    {
      "anonymous": false,
      "inputs": [
        {
          "indexed": true,
          "internalType": "address",
          "name": "sender",
          "type": "address"
        },
        {
          "indexed": false,
          "internalType": "uint256",
          "name": "amount",
          "type": "uint256"
        },
        {
          "indexed": false,
          "internalType": "uint256",
          "name": "balance",
          "type": "uint256"
        }
      ],
      "name": "Deposit",
      "type": "event"
    },
    {
      "anonymous": false,
      "inputs": [
        {
          "indexed": true,
          "internalType": "address",
          "name": "creator",
          "type": "address"
        },
        {
          "indexed": true,
          "internalType": "address",
          "name": "wallet",
          "type": "address"
        }
      ],
      "name": "WalletRecord",
      "type": "event"
    },
    {
      "inputs": [
        {
          "internalType": "address",
          "name": "_owner",
          "type": "address"
        }
      ],
      "name": "getWalletsByOwner",
      "outputs": [
        {
          "internalType": "address[]",
          "name": "",
          "type": "address[]"
        }
      ],
      "stateMutability": "view",
      "type": "function"
    },
    {
      "inputs": [
        {
          "internalType": "address",
          "name": "_owner",
          "type": "address"
        },
        {
          "internalType": "address",
          "name": "_wallet",
          "type": "address"
        }
      ],
      "name": "recordWallet",
      "outputs": [],
      "stateMutability": "nonpayable",
      "type": "function"
    },
    {
      "inputs": [
        {
          "internalType": "address",
          "name": "",
          "type": "address"
        },
        {
          "internalType": "uint256",
          "name": "",
          "type": "uint256"
        }
      ],
      "name": "walletsByOwner",
      "outputs": [
        {
          "internalType": "address",
          "name": "",
          "type": "address"
        }
      ],
      "stateMutability": "view",
      "type": "function"
    }
  ],
  "transactionHash": "0xe651c9b0beebea77b7e93894a729b809170cb081a081cee864f0684c43697503",
  "args": [],
  "numDeployments": 3,
  "solcInputHash": "9ed2657ad6ede4a9bd4de88d59dc91e4",
  "bytecode": "0x608060405234801561001057600080fd5b506102dd806100206000396000f3fe608060405234801561001057600080fd5b50600436106100415760003560e01c80635126833114610046578063ba79906614610076578063e63e8aaf14610096575b600080fd5b6100596100543660046101db565b6100ab565b6040516001600160a01b0390911681526020015b60405180910390f35b610089610084366004610205565b6100e3565b60405161006d9190610227565b6100a96100a4366004610274565b610157565b005b600060205281600052604060002081815481106100c757600080fd5b6000918252602090912001546001600160a01b03169150829050565b6001600160a01b0381166000908152602081815260409182902080548351818402810184019094528084526060939283018282801561014b57602002820191906000526020600020905b81546001600160a01b0316815260019091019060200180831161012d575b50505050509050919050565b6001600160a01b03828116600081815260208181526040808320805460018101825590845291832090910180546001600160a01b0319169486169485179055517f2213cc6c8895416e6d9577329e471b6bb79ae7d26dbe6827bc351b215cd6bdb19190a35050565b80356001600160a01b03811681146101d657600080fd5b919050565b600080604083850312156101ee57600080fd5b6101f7836101bf565b946020939093013593505050565b60006020828403121561021757600080fd5b610220826101bf565b9392505050565b6020808252825182820181905260009190848201906040850190845b818110156102685783516001600160a01b031683529284019291840191600101610243565b50909695505050505050565b6000806040838503121561028757600080fd5b610290836101bf565b915061029e602084016101bf565b9050925092905056fea264697066735822122042340e547d4d032a4d455423309a8921b8247e1d4c161730b59ba344cc1928f964736f6c63430008140033",
  "devdoc": {
    "kind": "dev",
    "methods": {},
    "version": 1
  },
  "userdoc": {
    "kind": "user",
    "methods": {},
    "version": 1
  },
  "storageLayout": {
    "storage": [
      {
        "astId": 2292,
        "contract": "contracts/SafeLiteAddressBook.sol:SafeLiteAddressBook",
        "label": "walletsByOwner",
        "offset": 0,
        "slot": "0",
        "type": "t_mapping(t_address,t_array(t_address)dyn_storage)"
      }
    ],
    "types": {
      "t_address": {
        "encoding": "inplace",
        "label": "address",
        "numberOfBytes": "20"
      },
      "t_array(t_address)dyn_storage": {
        "base": "t_address",
        "encoding": "dynamic_array",
        "label": "address[]",
        "numberOfBytes": "32"
      },
      "t_mapping(t_address,t_array(t_address)dyn_storage)": {
        "encoding": "mapping",
        "key": "t_address",
        "label": "mapping(address => address[])",
        "numberOfBytes": "32",
        "value": "t_array(t_address)dyn_storage"
      }
    }
  }
}