{
  "address": "0x2CDDB72c47596e320d84b653B2d6aE3279a68AAf",
  "abi": [
    {
      "anonymous": false,
      "inputs": [
        {
          "indexed": true,
          "internalType": "address",
          "name": "owner",
          "type": "address"
        },
        {
          "indexed": true,
          "internalType": "address",
          "name": "wallet",
          "type": "address"
        }
      ],
      "name": "RecordWallet",
      "type": "event"
    },
    {
      "anonymous": false,
      "inputs": [
        {
          "indexed": true,
          "internalType": "address",
          "name": "owner",
          "type": "address"
        },
        {
          "indexed": true,
          "internalType": "address",
          "name": "wallet",
          "type": "address"
        }
      ],
      "name": "RemoveWallet",
      "type": "event"
    },
    {
      "inputs": [
        {
          "internalType": "address",
          "name": "_owner",
          "type": "address"
        }
      ],
      "name": "getWalletsByOwner",
      "outputs": [
        {
          "internalType": "address[]",
          "name": "",
          "type": "address[]"
        }
      ],
      "stateMutability": "view",
      "type": "function"
    },
    {
      "inputs": [
        {
          "internalType": "address",
          "name": "_owner",
          "type": "address"
        },
        {
          "internalType": "address",
          "name": "_wallet",
          "type": "address"
        }
      ],
      "name": "recordWallet",
      "outputs": [],
      "stateMutability": "nonpayable",
      "type": "function"
    },
    {
      "inputs": [
        {
          "internalType": "address",
          "name": "_owner",
          "type": "address"
        },
        {
          "internalType": "address",
          "name": "_wallet",
          "type": "address"
        }
      ],
      "name": "removeWallet",
      "outputs": [],
      "stateMutability": "nonpayable",
      "type": "function"
    },
    {
      "inputs": [
        {
          "internalType": "address",
          "name": "",
          "type": "address"
        },
        {
          "internalType": "uint256",
          "name": "",
          "type": "uint256"
        }
      ],
      "name": "walletsByOwner",
      "outputs": [
        {
          "internalType": "address",
          "name": "",
          "type": "address"
        }
      ],
      "stateMutability": "view",
      "type": "function"
    }
  ],
  "transactionHash": "0x67c7168a143082ff4e32b749778a2743769af577239cda2397842a237118e0a0",
  "args": [],
  "numDeployments": 4,
  "solcInputHash": "9141f78ce33b3eec2032bd1f05ef1282",
  "bytecode": "0x608060405234801561001057600080fd5b506104d5806100206000396000f3fe608060405234801561001057600080fd5b506004361061004c5760003560e01c80635126833114610051578063ba79906614610081578063e63e8aaf146100a1578063eeda273d146100b6575b600080fd5b61006461005f36600461035f565b6100c9565b6040516001600160a01b0390911681526020015b60405180910390f35b61009461008f366004610389565b610101565b60405161007891906103ab565b6100b46100af3660046103f8565b610175565b005b6100b46100c43660046103f8565b6101dd565b600060205281600052604060002081815481106100e557600080fd5b6000918252602090912001546001600160a01b03169150829050565b6001600160a01b0381166000908152602081815260409182902080548351818402810184019094528084526060939283018282801561016957602002820191906000526020600020905b81546001600160a01b0316815260019091019060200180831161014b575b50505050509050919050565b6001600160a01b03828116600081815260208181526040808320805460018101825590845291832090910180546001600160a01b0319169486169485179055517f593ef6386c00390ba15afc8214f375d88b795ad5cc02a8a593deb3b4a2ce93e69190a35050565b6001600160a01b0382166000908152602081905260408120905b81548110156102fd57826001600160a01b031682828154811061021c5761021c61042b565b6000918252602090912001546001600160a01b0316036102eb578154829061024690600190610457565b815481106102565761025661042b565b9060005260206000200160009054906101000a90046001600160a01b03168282815481106102865761028661042b565b9060005260206000200160006101000a8154816001600160a01b0302191690836001600160a01b03160217905550818054806102c4576102c4610470565b600082815260209020810160001990810180546001600160a01b03191690550190556102fd565b806102f581610486565b9150506101f7565b50816001600160a01b0316836001600160a01b03167f90d5717ce5caf63bab2c4c3b8088c2736cff35c303feef5a95e62073edbf90a560405160405180910390a3505050565b80356001600160a01b038116811461035a57600080fd5b919050565b6000806040838503121561037257600080fd5b61037b83610343565b946020939093013593505050565b60006020828403121561039b57600080fd5b6103a482610343565b9392505050565b6020808252825182820181905260009190848201906040850190845b818110156103ec5783516001600160a01b0316835292840192918401916001016103c7565b50909695505050505050565b6000806040838503121561040b57600080fd5b61041483610343565b915061042260208401610343565b90509250929050565b634e487b7160e01b600052603260045260246000fd5b634e487b7160e01b600052601160045260246000fd5b8181038181111561046a5761046a610441565b92915050565b634e487b7160e01b600052603160045260246000fd5b60006001820161049857610498610441565b506001019056fea264697066735822122064a3965f2e71041e39bf380408eb4eec86e30f4317da03212587bdd71d74644064736f6c63430008140033",
  "devdoc": {
    "kind": "dev",
    "methods": {},
    "version": 1
  },
  "userdoc": {
    "kind": "user",
    "methods": {},
    "version": 1
  },
  "storageLayout": {
    "storage": [
      {
        "astId": 2310,
        "contract": "contracts/SafeLiteAddressBook.sol:SafeLiteAddressBook",
        "label": "walletsByOwner",
        "offset": 0,
        "slot": "0",
        "type": "t_mapping(t_address,t_array(t_address)dyn_storage)"
      }
    ],
    "types": {
      "t_address": {
        "encoding": "inplace",
        "label": "address",
        "numberOfBytes": "20"
      },
      "t_array(t_address)dyn_storage": {
        "base": "t_address",
        "encoding": "dynamic_array",
        "label": "address[]",
        "numberOfBytes": "32"
      },
      "t_mapping(t_address,t_array(t_address)dyn_storage)": {
        "encoding": "mapping",
        "key": "t_address",
        "label": "mapping(address => address[])",
        "numberOfBytes": "32",
        "value": "t_array(t_address)dyn_storage"
      }
    }
  }
}